:020000040000FA
:100000000C9461000C947E000C947E000C947E0095
:100010000C947E000C947E000C947E000C947E0068
:100020000C947E000C947E000C947E000C947E0058
:100030000C947E000C947E000C947E000C947E0048
:100040000C9476010C947E000C947E000C947E003F
:100050000C947E000C947E000C947E000C947E0028
:100060000C947E000C947E00000000002400270009
:100070002A0000000000250028002B0000000000DE
:1000800023002600290004040404040404040202DA
:100090000202020203030303030301020408102007
:1000A0004080010204081020010204081020000012
:1000B0000008000201000003040700000000000027
:1000C000000011241FBECFEFD8E0DEBFCDBF11E08E
:1000D000A0E0B1E0E6E2F6E002C005900D92A030AB
:1000E000B107D9F721E0A0E0B1E001C01D92AF3027
:1000F000B207E1F70E94C0010C9411030C940000B8
:1001000080E480937C0080917A00806480937A0000
:1001100080917A0086FDFCCF8091780090917900E3
:100120000895833081F028F4813099F08230A9F06D
:1001300008958730A9F08830C9F08430B1F48091F7
:1001400080008F7D03C0809180008F778093800036
:10015000089584B58F7784BD089584B58F7DFBCFD6
:100160008091B0008F778093B00008958091B000A7
:100170008F7DF9CF1F93CF93DF93282F30E0F901C4
:10018000E255FF4F8491F901E656FF4FD491F901F2
:10019000EA57FF4FC491CC23A9F0162F81110E947A
:1001A0009100EC2FF0E0EE0FFF1FEE58FF4FA591EE
:1001B000B4918FB7F894EC91111108C0D095DE235B
:1001C000DC938FBFDF91CF911F910895DE2BF8CF85
:1001D000CF93DF9390E0FC01E656FF4F24918A57BE
:1001E0009F4FFC0184918823D1F090E0880F991FE4
:1001F000FC01E859FF4FA591B491FC01EE58FF4F67
:10020000C591D491623071F49FB7F8943C91822FDC
:10021000809583238C93E8812E2B28839FBFDF91C9
:10022000CF9108958FB7F894EC912E2B2C938FBF1C
:10023000F6CF1F93CF93DF93182FEB0161E00E945D
:10024000E800209739F460E0812FDF91CF911F9172
:100250000C94BA00CF3FD10511F461E0F5CFE12F46
:10026000F0E0E255FF4FE491E33031F140F4E1304A
:10027000B1F0E230E1F0C038D1057CF7E4CFE730EF
:1002800029F1E83059F1E430B1F7809180008062C3
:1002900080938000D0938B00C0938A0004C084B503
:1002A000806884BDC7BDDF91CF911F91089584B54B
:1002B000806284BDC8BDF7CF809180008068809344
:1002C0008000D0938900C0938800EDCF8091B0006A
:1002D00080688093B000C093B300E5CF8091B000F8
:1002E00080628093B000C093B400DDCF1F920F9264
:1002F0000FB60F9211242F933F938F939F93AF9339
:10030000BF9380910B0190910C01A0910D01B091D0
:100310000E0130910A0123E0230F2D3758F5019685
:10032000A11DB11D20930A0180930B0190930C0134
:10033000A0930D01B0930E018091060190910701E9
:10034000A0910801B09109010196A11DB11D8093F2
:10035000060190930701A0930801B0930901BF9192
:10036000AF919F918F913F912F910F900FBE0F9062
:100370001F90189526E8230F0296A11DB11DD2CF1C
:10038000789484B5826084BD84B5816084BD85B570
:10039000826085BD85B5816085BD80916E0081607C
:1003A00080936E0010928100809181008260809322
:1003B0008100809181008160809381008091800024
:1003C0008160809380008091B10084608093B1004F
:1003D0008091B00081608093B00080917A00846049
:1003E00080937A0080917A00826080937A00809175
:1003F0007A00816080937A0080917A00806880938F
:100400007A001092C10062E082E00E94E80061E0A0
:1004100089E00E94E80061E08AE00E94E80061E073
:100420008BE00E94E80098E8292E90E0392E00E049
:1004300010E00E9480002FEF30E0DC010E940A03F0
:100440002FEF33E040E050E00E94BA0229013093E0
:100450000501209304010E9480002FEF30E0DC01B1
:100460000E940A032FEF33E040E050E00E94BA02FE
:10047000490130930301209302010E9480002FEF75
:1004800030E0DC010E940A032FEF33E040E050E04F
:100490000E94BA0269013093010120930001E0EB50
:1004A000F0E08491ECE9F0E0D491F101C491C11144
:1004B00028C0FAE04F0E511C8FEF4816510411F07E
:1004C0000CF049C05092050140920401EAE08E0E02
:1004D000911CFFEF8F16910411F00CF041C0909227
:1004E0000301809202018AE0C80ED11CEFEFCE1604
:1004F000D10411F00CF039C0D0920101C09200017A
:100500000EC081110E949100EC2FF0E0EE0FFF1F52
:10051000E458FF4FA591B4918C91D82351F260918A
:1005200004017091050189E00E94190160910201A6
:10053000709103018AE00E9419016091000170919D
:1005400001018BE00E9419010115110509F471CF19
:100550000E9400006ECF1092050110920401B6CFE8
:100560001092030110920201BECF1092010110926D
:100570000001D5CF052E97FB1EF400940E94D102F6
:1005800057FD07D00E94D90207FC03D04EF40C940B
:10059000D10250954095309521953F4F4F4F5F4F79
:1005A000089590958095709561957F4F8F4F9F4FDF
:1005B0000895A1E21A2EAA1BBB1BFD010DC0AA1FA4
:1005C000BB1FEE1FFF1FA217B307E407F50720F0BC
:1005D000A21BB30BE40BF50B661F771F881F991F37
:1005E0001A9469F760957095809590959B01AC0180
:1005F000BD01CF010895A29FB001B39FC001A39F89
:10060000700D811D1124911DB29F700D811D11244B
:10061000911D08950E94FB02B7FF0895821B930B62
:060620000895F894FFCFDD
:107E0000112484B714BE81FFF0D085E080938100F7
:107E100082E08093C00088E18093C10086E0809377
:107E2000C20080E18093C4008EE0C9D0259A86E02C
:107E300020E33CEF91E0309385002093840096BBD3
:107E4000B09BFECF1D9AA8958150A9F7CC24DD24C4
:107E500088248394B5E0AB2EA1E19A2EF3E0BF2EE7
:107E6000A2D0813461F49FD0082FAFD0023811F036
:107E7000013811F484E001C083E08DD089C08234E0
:107E800011F484E103C0853419F485E0A6D080C0E4
:107E9000853579F488D0E82EFF2485D0082F10E0AE
:107EA000102F00270E291F29000F111F8ED06801E7
:107EB0006FC0863521F484E090D080E0DECF843638
:107EC00009F040C070D06FD0082F6DD080E0C81688
:107ED00080E7D80618F4F601B7BEE895C0E0D1E017
:107EE00062D089930C17E1F7F0E0CF16F0E7DF06D8
:107EF00018F0F601B7BEE89568D007B600FCFDCFD4
:107F0000A601A0E0B1E02C9130E011968C91119780
:107F100090E0982F8827822B932B1296FA010C0160
:107F200087BEE89511244E5F5F4FF1E0A038BF0790
:107F300051F7F601A7BEE89507B600FCFDCF97BE46
:107F4000E89526C08437B1F42ED02DD0F82E2BD052
:107F50003CD0F601EF2C8F010F5F1F4F84911BD097
:107F6000EA94F801C1F70894C11CD11CFA94CF0C13
:107F7000D11C0EC0853739F428D08EE10CD085E9AC
:107F80000AD08FE07ACF813511F488E018D01DD067
:107F900080E101D065CF982F8091C00085FFFCCF94
:107FA0009093C60008958091C00087FFFCCF809118
:107FB000C00084FD01C0A8958091C6000895E0E648
:107FC000F0E098E1908380830895EDDF803219F02E
:107FD00088E0F5DFFFCF84E1DECF1F93182FE3DFCA
:107FE0001150E9F7F2DF1F91089580E0E8DFEE27F6
:047FF000FF270994CA
:027FFE00040479
:00000001FF
